{"abi":[{"type":"constructor","inputs":[{"name":"treasury_","type":"address","internalType":"address"},{"name":"royaltyBps_","type":"uint96","internalType":"uint96"},{"name":"mintFee_","type":"uint256","internalType":"uint256"}],"stateMutability":"nonpayable"},{"type":"function","name":"approve","inputs":[{"name":"to","type":"address","internalType":"address"},{"name":"tokenId","type":"uint256","internalType":"uint256"}],"outputs":[],"stateMutability":"nonpayable"},{"type":"function","name":"balanceOf","inputs":[{"name":"owner","type":"address","internalType":"address"}],"outputs":[{"name":"","type":"uint256","internalType":"uint256"}],"stateMutability":"view"},{"type":"function","name":"getApproved","inputs":[{"name":"tokenId","type":"uint256","internalType":"uint256"}],"outputs":[{"name":"","type":"address","internalType":"address"}],"stateMutability":"view"},{"type":"function","name":"isApprovedForAll","inputs":[{"name":"owner","type":"address","internalType":"address"},{"name":"operator","type":"address","internalType":"address"}],"outputs":[{"name":"","type":"bool","internalType":"bool"}],"stateMutability":"view"},{"type":"function","name":"mint","inputs":[{"name":"to","type":"address","internalType":"address"},{"name":"personalityId","type":"string","internalType":"string"},{"name":"tokenURI_","type":"string","internalType":"string"}],"outputs":[{"name":"tokenId","type":"uint256","internalType":"uint256"}],"stateMutability":"payable"},{"type":"function","name":"mintFee","inputs":[],"outputs":[{"name":"","type":"uint256","internalType":"uint256"}],"stateMutability":"view"},{"type":"function","name":"name","inputs":[],"outputs":[{"name":"","type":"string","internalType":"string"}],"stateMutability":"view"},{"type":"function","name":"owner","inputs":[],"outputs":[{"name":"","type":"address","internalType":"address"}],"stateMutability":"view"},{"type":"function","name":"ownerOf","inputs":[{"name":"tokenId","type":"uint256","internalType":"uint256"}],"outputs":[{"name":"","type":"address","internalType":"address"}],"stateMutability":"view"},{"type":"function","name":"personalityIdOf","inputs":[{"name":"tokenId","type":"uint256","internalType":"uint256"}],"outputs":[{"name":"personalityId","type":"string","internalType":"string"}],"stateMutability":"view"},{"type":"function","name":"renounceOwnership","inputs":[],"outputs":[],"stateMutability":"nonpayable"},{"type":"function","name":"royaltyInfo","inputs":[{"name":"tokenId","type":"uint256","internalType":"uint256"},{"name":"salePrice","type":"uint256","internalType":"uint256"}],"outputs":[{"name":"receiver","type":"address","internalType":"address"},{"name":"amount","type":"uint256","internalType":"uint256"}],"stateMutability":"view"},{"type":"function","name":"safeTransferFrom","inputs":[{"name":"from","type":"address","internalType":"address"},{"name":"to","type":"address","internalType":"address"},{"name":"tokenId","type":"uint256","internalType":"uint256"}],"outputs":[],"stateMutability":"nonpayable"},{"type":"function","name":"safeTransferFrom","inputs":[{"name":"from","type":"address","internalType":"address"},{"name":"to","type":"address","internalType":"address"},{"name":"tokenId","type":"uint256","internalType":"uint256"},{"name":"data","type":"bytes","internalType":"bytes"}],"outputs":[],"stateMutability":"nonpayable"},{"type":"function","name":"setApprovalForAll","inputs":[{"name":"operator","type":"address","internalType":"address"},{"name":"approved","type":"bool","internalType":"bool"}],"outputs":[],"stateMutability":"nonpayable"},{"type":"function","name":"setMintFee","inputs":[{"name":"mintFee_","type":"uint256","internalType":"uint256"}],"outputs":[],"stateMutability":"nonpayable"},{"type":"function","name":"setTreasury","inputs":[{"name":"treasury_","type":"address","internalType":"address"}],"outputs":[],"stateMutability":"nonpayable"},{"type":"function","name":"supportsInterface","inputs":[{"name":"interfaceId","type":"bytes4","internalType":"bytes4"}],"outputs":[{"name":"","type":"bool","internalType":"bool"}],"stateMutability":"view"},{"type":"function","name":"symbol","inputs":[],"outputs":[{"name":"","type":"string","internalType":"string"}],"stateMutability":"view"},{"type":"function","name":"tokenIdOfPersonality","inputs":[{"name":"personalityId","type":"string","internalType":"string"}],"outputs":[{"name":"tokenId","type":"uint256","internalType":"uint256"}],"stateMutability":"view"},{"type":"function","name":"tokenURI","inputs":[{"name":"tokenId","type":"uint256","internalType":"uint256"}],"outputs":[{"name":"","type":"string","internalType":"string"}],"stateMutability":"view"},{"type":"function","name":"transferFrom","inputs":[{"name":"from","type":"address","internalType":"address"},{"name":"to","type":"address","internalType":"address"},{"name":"tokenId","type":"uint256","internalType":"uint256"}],"outputs":[],"stateMutability":"nonpayable"},{"type":"function","name":"transferOwnership","inputs":[{"name":"newOwner","type":"address","internalType":"address"}],"outputs":[],"stateMutability":"nonpayable"},{"type":"function","name":"treasury","inputs":[],"outputs":[{"name":"","type":"address","internalType":"address"}],"stateMutability":"view"},{"type":"event","name":"Approval","inputs":[{"name":"owner","type":"address","indexed":true,"internalType":"address"},{"name":"approved","type":"address","indexed":true,"internalType":"address"},{"name":"tokenId","type":"uint256","indexed":true,"internalType":"uint256"}],"anonymous":false},{"type":"event","name":"ApprovalForAll","inputs":[{"name":"owner","type":"address","indexed":true,"internalType":"address"},{"name":"operator","type":"address","indexed":true,"internalType":"address"},{"name":"approved","type":"bool","indexed":false,"internalType":"bool"}],"anonymous":false},{"type":"event","name":"BatchMetadataUpdate","inputs":[{"name":"_fromTokenId","type":"uint256","indexed":false,"internalType":"uint256"},{"name":"_toTokenId","type":"uint256","indexed":false,"internalType":"uint256"}],"anonymous":false},{"type":"event","name":"MetadataUpdate","inputs":[{"name":"_tokenId","type":"uint256","indexed":false,"internalType":"uint256"}],"anonymous":false},{"type":"event","name":"OwnershipTransferred","inputs":[{"name":"previousOwner","type":"address","indexed":true,"internalType":"address"},{"name":"newOwner","type":"address","indexed":true,"internalType":"address"}],"anonymous":false},{"type":"event","name":"PersonalityMinted","inputs":[{"name":"tokenId","type":"uint256","indexed":true,"internalType":"uint256"},{"name":"personalityId","type":"string","indexed":false,"internalType":"string"},{"name":"to","type":"address","indexed":true,"internalType":"address"},{"name":"tokenURI","type":"string","indexed":false,"internalType":"string"}],"anonymous":false},{"type":"event","name":"Transfer","inputs":[{"name":"from","type":"address","indexed":true,"internalType":"address"},{"name":"to","type":"address","indexed":true,"internalType":"address"},{"name":"tokenId","type":"uint256","indexed":true,"internalType":"uint256"}],"anonymous":false},{"type":"error","name":"AlreadyMinted","inputs":[{"name":"personalityId","type":"string","internalType":"string"}]},{"type":"error","name":"ERC2981InvalidDefaultRoyalty","inputs":[{"name":"numerator","type":"uint256","internalType":"uint256"},{"name":"denominator","type":"uint256","internalType":"uint256"}]},{"type":"error","name":"ERC2981InvalidDefaultRoyaltyReceiver","inputs":[{"name":"receiver","type":"address","internalType":"address"}]},{"type":"error","name":"ERC2981InvalidTokenRoyalty","inputs":[{"name":"tokenId","type":"uint256","internalType":"uint256"},{"name":"numerator","type":"uint256","internalType":"uint256"},{"name":"denominator","type":"uint256","internalType":"uint256"}]},{"type":"error","name":"ERC2981InvalidTokenRoyaltyReceiver","inputs":[{"name":"tokenId","type":"uint256","internalType":"uint256"},{"name":"receiver","type":"address","internalType":"address"}]},{"type":"error","name":"ERC721IncorrectOwner","inputs":[{"name":"sender","type":"address","internalType":"address"},{"name":"tokenId","type":"uint256","internalType":"uint256"},{"name":"owner","type":"address","internalType":"address"}]},{"type":"error","name":"ERC721InsufficientApproval","inputs":[{"name":"operator","type":"address","internalType":"address"},{"name":"tokenId","type":"uint256","internalType":"uint256"}]},{"type":"error","name":"ERC721InvalidApprover","inputs":[{"name":"approver","type":"address","internalType":"address"}]},{"type":"error","name":"ERC721InvalidOperator","inputs":[{"name":"operator","type":"address","internalType":"address"}]},{"type":"error","name":"ERC721InvalidOwner","inputs":[{"name":"owner","type":"address","internalType":"address"}]},{"type":"error","name":"ERC721InvalidReceiver","inputs":[{"name":"receiver","type":"address","internalType":"address"}]},{"type":"error","name":"ERC721InvalidSender","inputs":[{"name":"sender","type":"address","internalType":"address"}]},{"type":"error","name":"ERC721NonexistentToken","inputs":[{"name":"tokenId","type":"uint256","internalType":"uint256"}]},{"type":"error","name":"InsufficientMintFee","inputs":[{"name":"required","type":"uint256","internalType":"uint256"},{"name":"provided","type":"uint256","internalType":"uint256"}]},{"type":"error","name":"OwnableInvalidOwner","inputs":[{"name":"owner","type":"address","internalType":"address"}]},{"type":"error","name":"OwnableUnauthorizedAccount","inputs":[{"name":"account","type":"address","internalType":"address"}]},{"type":"error","name":"TreasuryTransferFailed","inputs":[]}],"bytecode":{"object":"0x608060405234801562000010575f80fd5b50604051620020003803806200200083398101604081905262000033916200024c565b336040518060400160405280600f81526020016e2a3937b6362330b936aa3cb1b7b7b760891b8152506040518060400160405280600381526020016215119560ea1b815250815f908162000088919062000343565b50600162000097828262000343565b5050506001600160a01b038116620000c957604051631e4fbdf760e01b81525f60048201526024015b60405180910390fd5b620000d48162000155565b506001600160a01b038316620001205760405162461bcd60e51b815260206004820152601060248201526f496e76616c696420747265617375727960801b6044820152606401620000c0565b600c80546001600160a01b0319166001600160a01b038516179055600b8190556200014c8383620001a6565b5050506200040f565b600980546001600160a01b038381166001600160a01b0319831681179093556040519116919082907f8be0079c531659141344cd1fd0a4f28419497f9722a3daafe3b4186f6b6457e0905f90a35050565b6127106001600160601b038216811015620001e757604051636f483d0960e01b81526001600160601b038316600482015260248101829052604401620000c0565b6001600160a01b0383166200021257604051635b6cc80560e11b81525f6004820152602401620000c0565b50604080518082019091526001600160a01b039092168083526001600160601b039091166020909201829052600160a01b90910217600755565b5f805f606084860312156200025f575f80fd5b83516001600160a01b038116811462000276575f80fd5b60208501519093506001600160601b038116811462000293575f80fd5b80925050604084015190509250925092565b634e487b7160e01b5f52604160045260245ffd5b600181811c90821680620002ce57607f821691505b602082108103620002ed57634e487b7160e01b5f52602260045260245ffd5b50919050565b601f8211156200033e57805f5260205f20601f840160051c810160208510156200031a5750805b601f840160051c820191505b818110156200033b575f815560010162000326565b50505b505050565b81516001600160401b038111156200035f576200035f620002a5565b6200037781620003708454620002b9565b84620002f3565b602080601f831160018114620003ad575f8415620003955750858301515b5f19600386901b1c1916600185901b17855562000407565b5f85815260208120601f198616915b82811015620003dd57888601518255948401946001909101908401620003bc565b5085821015620003fb57878501515f19600388901b60f8161c191681555b505060018460011b0185555b505050505050565b611be3806200041d5f395ff3fe608060405260043610610147575f3560e01c806370a08231116100b3578063b88d4fde1161006d578063b88d4fde146103c1578063c87b56dd146103e0578063e985e9c5146103ff578063eddd0d9c1461041e578063f0f442601461043d578063f2fde38b1461045c575f80fd5b806370a082311461032b578063715018a61461034a5780638da5cb5b1461035e57806395d89b411461037b578063990711901461038f578063a22cb465146103a2575f80fd5b80632701924a116101045780632701924a1461023a5780632a55205a14610259578063305fbc7b1461029757806342842e0e146102ce57806361d027b3146102ed5780636352211e1461030c575f80fd5b806301ffc9a71461014b57806306fdde031461017f578063081812fc146101a0578063095ea7b3146101d757806313966db5146101f857806323b872dd1461021b575b5f80fd5b348015610156575f80fd5b5061016a6101653660046114ad565b61047b565b60405190151581526020015b60405180910390f35b34801561018a575f80fd5b5061019361048b565b6040516101769190611515565b3480156101ab575f80fd5b506101bf6101ba366004611527565b61051a565b6040516001600160a01b039091168152602001610176565b3480156101e2575f80fd5b506101f66101f1366004611559565b610541565b005b348015610203575f80fd5b5061020d600b5481565b604051908152602001610176565b348015610226575f80fd5b506101f6610235366004611581565b610550565b348015610245575f80fd5b50610193610254366004611527565b6105de565b348015610264575f80fd5b506102786102733660046115ba565b610675565b604080516001600160a01b039093168352602083019190915201610176565b3480156102a2575f80fd5b5061020d6102b1366004611661565b8051602081830181018051600e8252928201919093012091525481565b3480156102d9575f80fd5b506101f66102e8366004611581565b6106fa565b3480156102f8575f80fd5b50600c546101bf906001600160a01b031681565b348015610317575f80fd5b506101bf610326366004611527565b610719565b348015610336575f80fd5b5061020d6103453660046116a6565b610723565b348015610355575f80fd5b506101f6610768565b348015610369575f80fd5b506009546001600160a01b03166101bf565b348015610386575f80fd5b5061019361077b565b61020d61039d3660046116fd565b61078a565b3480156103ad575f80fd5b506101f66103bc366004611778565b6109a4565b3480156103cc575f80fd5b506101f66103db3660046117b1565b6109af565b3480156103eb575f80fd5b506101936103fa366004611527565b6109c7565b34801561040a575f80fd5b5061016a610419366004611828565b6109d2565b348015610429575f80fd5b506101f6610438366004611527565b6109ff565b348015610448575f80fd5b506101f66104573660046116a6565b610a0c565b348015610467575f80fd5b506101f66104763660046116a6565b610a7f565b5f61048582610abc565b92915050565b60605f805461049990611859565b80601f01602080910402602001604051908101604052809291908181526020018280546104c590611859565b80156105105780601f106104e757610100808354040283529160200191610510565b820191905f5260205f20905b8154815290600101906020018083116104f357829003601f168201915b5050505050905090565b5f61052482610ae0565b505f828152600460205260409020546001600160a01b0316610485565b61054c828233610b18565b5050565b6001600160a01b03821661057e57604051633250574960e11b81525f60048201526024015b60405180910390fd5b5f61058a838333610b25565b9050836001600160a01b0316816001600160a01b0316146105d8576040516364283d7b60e01b81526001600160a01b0380861660048301526024820184905282166044820152606401610575565b50505050565b600d6020525f9081526040902080546105f690611859565b80601f016020809104026020016040519081016040528092919081815260200182805461062290611859565b801561066d5780601f106106445761010080835404028352916020019161066d565b820191905f5260205f20905b81548152906001019060200180831161065057829003601f168201915b505050505081565b5f82815260086020526040812080548291906001600160a01b03811690600160a01b90046001600160601b0316816106c85750506007546001600160a01b03811690600160a01b90046001600160601b03165b5f6127106106df6001600160601b038416896118a5565b6106e991906118bc565b9295509193505050505b9250929050565b61071483838360405180602001604052805f8152506109af565b505050565b5f61048582610ae0565b5f6001600160a01b03821661074d576040516322718ad960e21b81525f6004820152602401610575565b506001600160a01b03165f9081526003602052604090205490565b610770610c17565b6107795f610c44565b565b60606001805461049990611859565b5f600e858560405161079d9291906118db565b9081526020016040518091039020545f146107cf578484604051630226686160e21b8152600401610575929190611912565b5f6107e26009546001600160a01b031690565b6001600160a01b0316336001600160a01b0316149050801580156108075750600b5434105b1561083257600b5460405163aa3a2df760e01b81526004810191909152346024820152604401610575565b8015801561083f57505f34115b156108b757600c546040515f916001600160a01b03169034908381818185875af1925050503d805f811461088e576040519150601f19603f3d011682016040523d82523d5f602084013e610893565b606091505b50509050806108b5576040516301c6e79f60e31b815260040160405180910390fd5b505b600a5f81546108c590611925565b91829055505f818152600d602052604090209092506108e5868883611981565b5081600e87876040516108f99291906118db565b908152604051908190036020019020556109138783610c95565b6109528285858080601f0160208091040260200160405190810160405280939291908181526020018383808284375f92019190915250610cae92505050565b866001600160a01b0316827f625bf92b55774a9a8adbb1abfe96540b11b0fd7d8f5740f67d273d28a486fe2b888888886040516109929493929190611a3b565b60405180910390a35095945050505050565b61054c338383610cfd565b6109ba848484610550565b6105d83385858585610dc4565b606061048582610eec565b6001600160a01b039182165f90815260056020908152604080832093909416825291909152205460ff1690565b610a07610c17565b600b55565b610a14610c17565b6001600160a01b038116610a5d5760405162461bcd60e51b815260206004820152601060248201526f496e76616c696420747265617375727960801b6044820152606401610575565b600c80546001600160a01b0319166001600160a01b0392909216919091179055565b610a87610c17565b6001600160a01b038116610ab057604051631e4fbdf760e01b81525f6004820152602401610575565b610ab981610c44565b50565b5f6001600160e01b0319821663152a902d60e11b1480610485575061048582610f6d565b5f818152600260205260408120546001600160a01b03168061048557604051637e27328960e01b815260048101849052602401610575565b6107148383836001610f91565b5f828152600260205260408120546001600160a01b0390811690831615610b5157610b51818486611095565b6001600160a01b03811615610b8b57610b6c5f855f80610f91565b6001600160a01b0381165f90815260036020526040902080545f190190555b6001600160a01b03851615610bb9576001600160a01b0385165f908152600360205260409020805460010190555b5f8481526002602052604080822080546001600160a01b0319166001600160a01b0389811691821790925591518793918516917fddf252ad1be2c89b69c2b068fc378daa952ba7f163c4a11628f55a4df523b3ef91a4949350505050565b6009546001600160a01b031633146107795760405163118cdaa760e01b8152336004820152602401610575565b600980546001600160a01b038381166001600160a01b0319831681179093556040519116919082907f8be0079c531659141344cd1fd0a4f28419497f9722a3daafe3b4186f6b6457e0905f90a35050565b61054c828260405180602001604052805f8152506110f9565b5f828152600660205260409020610cc58282611a6c565b506040518281527ff8e1a15aba9398e019f0b49df1a4fde98ee17ae345cb5f6b5e2c27f5033e8ce79060200160405180910390a15050565b6001600160a01b038316610d265760405163a9fbf51f60e01b81525f6004820152602401610575565b6001600160a01b038216610d5857604051630b61174360e31b81526001600160a01b0383166004820152602401610575565b6001600160a01b038381165f81815260056020908152604080832094871680845294825291829020805460ff191686151590811790915591519182527f17307eab39ab6107e8899845ad3d59bd9653f200f220920489ca2b5937696c31910160405180910390a3505050565b6001600160a01b0383163b15610ee557604051630a85bd0160e11b81526001600160a01b0384169063150b7a0290610e06908890889087908790600401611b28565b6020604051808303815f875af1925050508015610e40575060408051601f3d908101601f19168201909252610e3d91810190611b64565b60015b610ea7573d808015610e6d576040519150601f19603f3d011682016040523d82523d5f602084013e610e72565b606091505b5080515f03610e9f57604051633250574960e11b81526001600160a01b0385166004820152602401610575565b805160208201fd5b6001600160e01b03198116630a85bd0160e11b14610ee357604051633250574960e11b81526001600160a01b0385166004820152602401610575565b505b5050505050565b6060610ef782610ae0565b505f610f0d60408051602081019091525f815290565b90505f610f1984611110565b905081515f03610f2a579392505050565b805115610f5c578181604051602001610f44929190611b7f565b60405160208183030381529060405292505050919050565b610f65846111af565b949350505050565b5f6001600160e01b03198216632483248360e11b1480610485575061048582611220565b8080610fa557506001600160a01b03821615155b15611066575f610fb484610ae0565b90506001600160a01b03831615801590610fe05750826001600160a01b0316816001600160a01b031614155b8015610ff35750610ff181846109d2565b155b1561101c5760405163a9fbf51f60e01b81526001600160a01b0384166004820152602401610575565b81156110645783856001600160a01b0316826001600160a01b03167f8c5be1e5ebec7d5bd14f71427d1e84f3dd0314c0f7b2291e5b200ac8c7c3b92560405160405180910390a45b505b50505f90815260046020526040902080546001600160a01b0319166001600160a01b0392909216919091179055565b6110a083838361126f565b610714576001600160a01b0383166110ce57604051637e27328960e01b815260048101829052602401610575565b60405163177e802f60e01b81526001600160a01b038316600482015260248101829052604401610575565b61110383836112d0565b610714335f858585610dc4565b5f81815260066020526040902080546060919061112c90611859565b80601f016020809104026020016040519081016040528092919081815260200182805461115890611859565b80156111a35780601f1061117a576101008083540402835291602001916111a3565b820191905f5260205f20905b81548152906001019060200180831161118657829003601f168201915b50505050509050919050565b60606111ba82610ae0565b505f6111d060408051602081019091525f815290565b90505f8151116111ee5760405180602001604052805f815250611219565b806111f884611331565b604051602001611209929190611b7f565b6040516020818303038152906040525b9392505050565b5f6001600160e01b031982166380ac58cd60e01b148061125057506001600160e01b03198216635b5e139f60e01b145b8061048557506301ffc9a760e01b6001600160e01b0319831614610485565b5f6001600160a01b03831615801590610f655750826001600160a01b0316846001600160a01b031614806112a857506112a884846109d2565b80610f655750505f908152600460205260409020546001600160a01b03908116911614919050565b6001600160a01b0382166112f957604051633250574960e11b81525f6004820152602401610575565b5f61130583835f610b25565b90506001600160a01b03811615610714576040516339e3563760e11b81525f6004820152602401610575565b60605f61133d836113c1565b60010190505f8167ffffffffffffffff81111561135c5761135c6115da565b6040519080825280601f01601f191660200182016040528015611386576020820181803683370190505b5090508181016020015b5f19016f181899199a1a9b1b9c1cb0b131b232b360811b600a86061a8153600a850494508461139057509392505050565b5f8072184f03e93ff9f4daa797ed6e38ed64bf6a1f0160401b83106113ff5772184f03e93ff9f4daa797ed6e38ed64bf6a1f0160401b830492506040015b6d04ee2d6d415b85acef8100000000831061142b576d04ee2d6d415b85acef8100000000830492506020015b662386f26fc10000831061144957662386f26fc10000830492506010015b6305f5e1008310611461576305f5e100830492506008015b612710831061147557612710830492506004015b60648310611487576064830492506002015b600a83106104855760010192915050565b6001600160e01b031981168114610ab9575f80fd5b5f602082840312156114bd575f80fd5b813561121981611498565b5f5b838110156114e25781810151838201526020016114ca565b50505f910152565b5f81518084526115018160208601602086016114c8565b601f01601f19169290920160200192915050565b602081525f61121960208301846114ea565b5f60208284031215611537575f80fd5b5035919050565b80356001600160a01b0381168114611554575f80fd5b919050565b5f806040838503121561156a575f80fd5b6115738361153e565b946020939093013593505050565b5f805f60608486031215611593575f80fd5b61159c8461153e565b92506115aa6020850161153e565b9150604084013590509250925092565b5f80604083850312156115cb575f80fd5b50508035926020909101359150565b634e487b7160e01b5f52604160045260245ffd5b5f67ffffffffffffffff80841115611608576116086115da565b604051601f8501601f19908116603f01168101908282118183101715611630576116306115da565b81604052809350858152868686011115611648575f80fd5b858560208301375f602087830101525050509392505050565b5f60208284031215611671575f80fd5b813567ffffffffffffffff811115611687575f80fd5b8201601f81018413611697575f80fd5b610f65848235602084016115ee565b5f602082840312156116b6575f80fd5b6112198261153e565b5f8083601f8401126116cf575f80fd5b50813567ffffffffffffffff8111156116e6575f80fd5b6020830191508360208285010111156106f3575f80fd5b5f805f805f60608688031215611711575f80fd5b61171a8661153e565b9450602086013567ffffffffffffffff80821115611736575f80fd5b61174289838a016116bf565b9096509450604088013591508082111561175a575f80fd5b50611767888289016116bf565b969995985093965092949392505050565b5f8060408385031215611789575f80fd5b6117928361153e565b9150602083013580151581146117a6575f80fd5b809150509250929050565b5f805f80608085870312156117c4575f80fd5b6117cd8561153e565b93506117db6020860161153e565b925060408501359150606085013567ffffffffffffffff8111156117fd575f80fd5b8501601f8101871361180d575f80fd5b61181c878235602084016115ee565b91505092959194509250565b5f8060408385031215611839575f80fd5b6118428361153e565b91506118506020840161153e565b90509250929050565b600181811c9082168061186d57607f821691505b60208210810361188b57634e487b7160e01b5f52602260045260245ffd5b50919050565b634e487b7160e01b5f52601160045260245ffd5b808202811582820484141761048557610485611891565b5f826118d657634e487b7160e01b5f52601260045260245ffd5b500490565b818382375f9101908152919050565b81835281816020850137505f828201602090810191909152601f909101601f19169091010190565b602081525f610f656020830184866118ea565b5f6001820161193657611936611891565b5060010190565b601f82111561071457805f5260205f20601f840160051c810160208510156119625750805b601f840160051c820191505b81811015610ee5575f815560010161196e565b67ffffffffffffffff831115611999576119996115da565b6119ad836119a78354611859565b8361193d565b5f601f8411600181146119de575f85156119c75750838201355b5f19600387901b1c1916600186901b178355610ee5565b5f83815260208120601f198716915b82811015611a0d57868501358255602094850194600190920191016119ed565b5086821015611a29575f1960f88860031b161c19848701351681555b505060018560011b0183555050505050565b604081525f611a4e6040830186886118ea565b8281036020840152611a618185876118ea565b979650505050505050565b815167ffffffffffffffff811115611a8657611a866115da565b611a9a81611a948454611859565b8461193d565b602080601f831160018114611acd575f8415611ab65750858301515b5f19600386901b1c1916600185901b178555610ee3565b5f85815260208120601f198616915b82811015611afb57888601518255948401946001909101908401611adc565b5085821015611b1857878501515f19600388901b60f8161c191681555b5050505050600190811b01905550565b6001600160a01b03858116825284166020820152604081018390526080606082018190525f90611b5a908301846114ea565b9695505050505050565b5f60208284031215611b74575f80fd5b815161121981611498565b5f8351611b908184602088016114c8565b835190830190611ba48183602088016114c8565b0194935050505056fea2646970667358221220f130d7587400d3359e89a7c3f0c0c08899be0be379ff075b69ce70b0789839f864736f6c63430008180033","linkReferences":{}},"methodIdentifiers":{"approve(address,uint256)":"095ea7b3","balanceOf(address)":"70a08231","getApproved(uint256)":"081812fc","isApprovedForAll(address,address)":"e985e9c5","mint(address,string,string)":"99071190","mintFee()":"13966db5","name()":"06fdde03","owner()":"8da5cb5b","ownerOf(uint256)":"6352211e","personalityIdOf(uint256)":"2701924a","renounceOwnership()":"715018a6","royaltyInfo(uint256,uint256)":"2a55205a","safeTransferFrom(address,address,uint256)":"42842e0e","safeTransferFrom(address,address,uint256,bytes)":"b88d4fde","setApprovalForAll(address,bool)":"a22cb465","setMintFee(uint256)":"eddd0d9c","setTreasury(address)":"f0f44260","supportsInterface(bytes4)":"01ffc9a7","symbol()":"95d89b41","tokenIdOfPersonality(string)":"305fbc7b","tokenURI(uint256)":"c87b56dd","transferFrom(address,address,uint256)":"23b872dd","transferOwnership(address)":"f2fde38b","treasury()":"61d027b3"},"id":38}